:060000000200B70205B684
:01000B0032C2
:03001300021AAD21
:01001B0032B2
:0100230032AA
:01002B0032A2
:01003300329A
:03003B00021B5352
:01004300328A
:03004B000208EFB9
:01005300327A
:01005B003272
:01006300326A
:01006B003262
:01007300325A
:01007B003252
:030083000206E092
:0301100002008664
:0300860002011361
:2001130090F15DE4F090F15EF090F15FF090F000E090DF3BE090F27CE4F090F27D7456F006
:20013300E4A3F090F0B175F000121CB5AFBE74FB5FF5BEE5BE30E6FBAFC674B85FF5C6E57A
:20015300C620E6FB43BE04E5BE30E6FB43FE03121BA4121A5F1203E2C291A2919290D2AF4C
:20017300121A9790F000E0FF30E60EC290C291B2919003E81203A780F690F000E0FF90F1B1
:200193005FE0FE5F601190F000E05206EEF4FE90F000E0FFEE5FF090F15DE0FF600DBF0121
:2001B30002805BBF0202806802023F120298AD82AE83AFF0121F7760AA90F10775F0001205
:2001D30002F690F15FE4F090F15EF090F219745DF074F1A3F0E4A3F090F21C745EF074F101
:2001F300A3F0E4A3F090F21F745FF074F1A3F0E4A3F090F10775F00012099C02017690F171
:200213000775F00012034F90F15D7402F002017690F000E0FF20E10302017690F000E0FF03
:2002330074FD5FF090F15DE4F002017690F000E0FF90F15EE0FE5F700302017690F000E0F9
:20025300FF90F15EEE5FF0E0F4FF90F000E0FEEF5EF090F219745DF074F1A3F0E4A3F090A7
:20027300F21C745EF074F1A3F0E4A3F090F21F745FF074F1A3F0E4A3F090F10775F000125A
:20029300099C02017690F0B1E0705190F000E0FF30E049121AAC90F000E0FF74FE5FF0901B
:2002B300F2657458F090F26674B1F074F0A3F0E4A3F090F00175F00012131FE5828583F024
:2002D30045F0701574DAC0E0741FC0E07480C0E0121BA6158115811581121A9790F0B1759E
:2002F300F00022AFF0AE83E58290F160F0EEA3F0EFA3F090F160E0FDA3E0FEA3E0FFC00746
:20031300C006C005120298AA82AB83ACF0D005D006D00790F27FEAF0EBA3F0ECA3F090F2C1
:20033300827456F0E4A3F08D828E838FF0121CDD90F0B1E0600590F0B1E4F022AFF0AE83E0
:20035300E58290F163F0EEA3F0EFA3F090F163E0FDA3E0FEA3E0FF90F26D7459F074F0A3D5
:20037300F0E4A3F090F2707458F08D828E838FF012169BE5828583F045F0701574E5C0E0E1
:20039300741FC0E07480C0E0121BA6158115811581021B3AAF83E58290F166F0EFA3F09015
:2003B300F166E0FEA3E0FF7C007D00C3EC9EED64808FF063F08095F050147AE87B031ABA6D
:0F03D300FF011BEA4B70F70CBC00E00D80DD2230
:161FDA0062616420727863616C6C0062616420747863616C6C0055
:2003E20090DF0074D3F090DF017491F090DF0374C0F090DF047402F090DF077406F090DF32
:2004020008E4F090DF097422F090DF0A74BBF090DF0B7446F090DF0C74C9F090DF0D748329
:20042200F090DF0E7401F090DF0F7423F090DF107480F090DF117432F090DF127407F090EE
:20044200DF137430F090DF1403F090DF157416F090DF1CF4F090DF1D742AF090DF1EE4F0B6
:2004620090DF1F741FF090DF247431F090DF257409F090DF2E74C0F090DF2DE4F090DF029E
:20048200744EF090DF04E0FF74FC5FF090DF067424F043918043914043910175E900439A22
:2004A20001C289D2A890F20AE4F0A3F0A3F0A3F090F206F0A3F0A3F0A3F00204BF90F28D56
:2004C200E4F075E10490DF3BE0FFBF01F8221204BFC29090F1B6E4F090F28D7403F043910D
:2004E2001075E102221204BFD29190F28D7402F075E10322E58290F210F0E0FF30E11190CE
:20050200DF13E0FE74034EF090F28D7404F0800690F28D7401F04391108F06EE30E00D90CF
:20052200F2057401F090F1B7E0F5D922C0071204BFD007EF30E10890F28D7404F08006904D
:20054200F28D7401F0D29190F205E4F075E10322AF83E58290F211F0EFA3F01204BFD291A6
:2005620090F28D7405F090F211E0FEA3E0FF90F20EEEF0EFA3F090F28874FFF0E4A3F08EAC
:20058200828F83121DB8AE8290DF02EEF090DF0EE4F090F20EE0FEA3E0FFC374FF9EE49FC7
:2005A200500B90DF04E0FF74FC5F4402F043911075E10322C020C0E0C0F0C082C083C007AC
:2005C200C006C005C004C003C002C001C000C0D075D000C28990DF3BE0FFBF0D028008BF06
:2005E200130280410206C390F1B6E0FFE02401F0EF2468F582E434F1F583E5D9F090F1B6F5
:20060200E0FFBF4E00400590F1B6E4F090F206E02401F0A3E03400F0A3E03400F0A3E0341A
:2006220000F00206C390F28DE0FFBF01028057BF02030206C3BF0402804CBF050280177485
:20064200F0C0E0741FC0E07480C0E0121BA6158115811581806B75D95590F20EE024FFFE8D
:20066200A3E034FFFF90F20EEEF0EFA3F090F20EE0FEA3E0FFBEFF49BF004690DF04E0FF86
:2006820074FC5FF0803B90F205E0FFE02401F0EF24B7F582E434F1F583E0F5D990F205E0AC
:2006A200FFBF4E00400590F205E4F090F20AE02401F0A3E03400F0A3E03400F0A3E0340006
:2006C200F0D0D0D000D001D002D003D004D005D006D007D083D082D0F0D0E0D02032C020D5
:2006E200C0E0C0F0C082C083C007C006C005C004C003C002C001C000C0D075D000AF9B7474
:20070200FC5FF59BE5E930E00CD290AFE974FE5FF5E90207F1E5E930E61FAFE974BF5FF53D
:20072200E974FDC0E0741FC0E07480C0E0121BA61581158115810207F1E5E930E7227409E3
:20074200C0E07420C0E07480C0E0121BA6158115811581AFE9747F5FF5E975E1040207F17E
:20076200E5E920E4030207DC90F28DE0FF24FA403FEF2F2F90077A7302078C02079A020720
:20078200B20207A702079A02078E802490DF02744EF090DF0E7401F090F000E0FF74084FE8
:2007A200F0C291800B90F000E0FF74044FF0C29090F28DE0FFBF041190F28D7403F090DF5A
:2007C20013E0FF74FC5FF0800890F28DE4F075E104AFE974EF5FF5E980157416C0E0742016
:2007E200C0E07480C0E0121BA6158115811581D0D0D000D001D002D003D004D005D006D0F9
:0C08020007D083D082D0F0D0E0D02032AC
:201FF000756E6B6E6F776E206D6F6465007278206F766572666C6F7700747820756E6465C6
:1820100072666C6F7700756E6B6E6F776E2072667266696E74722100D0
:01205B000084
:20080E00AFC674C75FF5C675E40022AF83E58290F217F0EFA3F075E400C2B990F000E0FFAE
:20082E0074DF5FF090F217E0FEA3E0FF4E700C90F213E4F0A3F0A3F0A3F02275E40075E251
:20084E00007D007C008E828F838DF0EC121D51AC82AD83AEF0FFC004C005C006C007905D88
:20086E004075F0C67447121BB1AC82AD83AEF0FFE58124FCF581E4C0E0C0E0747AC0E07449
:20088E0044C0E08C828D838EF0EF121EB4AC82AD83AEF0FFE58124FCF5818C828D838EF064
:2008AE00EF121D64AC82AD83AEF0FF90F213ECF0EDA3F0EEA3F0EFA3F08E008F01E4FAFBC2
:2008CE00E8494A4B600875DBFF75DAFF800A8DDB7D007E007F008CDA75E544D2B975E40EDD
:2008EE0022C0E0C082C083C007C006C005C004C003C002C001C000C0D075D00090F213E03D
:20090E00FCA3E0FDA3E0FEA3E0FF8E008F01E4FAFBE8494A4B701F90F000E0FB74204BF0D4
:20092E0090F213E4F0A3F0A3F0A3F0C2B9ABE474FC5BF5E4803FEC2401FCE43DFDEE34FFCE
:20094E00FEEF34FFFF90F213ECF0EDA3F0EEA3F0EFA3F090F213E0FCA3E0FDA3E0FEA3E081
:20096E00FF8E008F01E4FAFBE8494A4B70078DDBFDFEFF8CDBD0D0D000D001D002D003D0B7
:0E098E0004D005D006D007D083D082D0E0324E
:20099C00AFF0AE83E58290F222F0EEA3F0EFA3F090F222E0FDA3E0FEA3E0FF8D828E838F3A
:2009BC00F0121F77FCBC01028047BC0303020A64BC0503020ABBBC0703020B128D828E833F
:2009DC008FF07480121D9D74022DFAE43EFB8F048A828B838CF07402121D9D90F219E0FA22
:2009FC00A3E0FBA3E0FC8A828B838CF07401021D9D90F219E0F508A3E0F509A3E0F50A900C
:200A1C00F21CE0F50BA3E0F50CA3E0F50D90F21FE0FAA3E0FBA3E0FC90F225E508F0E509D9
:200A3C00A3F0E50AA3F090F228E50BF0E50CA3F0E50DA3F090F22BEAF0EBA3F0ECA3F08DE1
:200A5C00828E838FF0020B6990F219E0F50BA3E0F50CA3E0F50D90F21CE0F508A3E0F50972
:200A7C00A3E0F50A90F21FE0FAA3E0FBA3E0FC90F231E50BF0E50CA3F0E50DA3F090F2340E
:200A9C00E508F0E509A3F0E50AA3F090F237EAF0EBA3F0ECA3F08D828E838FF0020D179075
:200ABC00F219E0F50BA3E0F50CA3E0F50D90F21CE0F508A3E0F509A3E0F50A90F21FE0FA2D
:200ADC00A3E0FBA3E0FC90F23DE50BF0E50CA3F0E50DA3F090F240E508F0E509A3F0E50A46
:200AFC00A3F090F243EAF0EBA3F0ECA3F08D828E838FF0020EB190F219E0F50BA3E0F50C4C
:200B1C00A3E0F50D90F21CE0F508A3E0F509A3E0F50A90F21FE0FAA3E0FBA3E0FC90F24973
:200B3C00E50BF0E50CA3F0E50DA3F090F24CE508F0E509A3F0E50AA3F090F24FEAF0EBA3C9
:0D0B5C00F0ECA3F08D828E838FF002114B20
:200B6900AFF0AE83E58290F22EF0EEA3F0EFA3F090F225E0FDA3E0FEA3E0FF8D828E838F5C
:200B8900F0121F77FC6009BC0303020C18020CFBC007C006C0051204D0D005D006D0078D17
:200BA900828E838FF07403121D9D90F228E0F50EA3E0F50FA3E0F510850E82850F8385107A
:200BC900F07404121D9D90F22EE0F8A3E0FAA3E0FB740328F8E43AFA88828A838BF0121FE3
:200BE90077FAA3121F77FB4A7001228A828B83120819850E82850F838510F0121F77FB4374
:200C09000320850E82850F838510F0EB021D9D90F228E0F50EA3E0F50FA3E0F510850E829F
:200C2900850F838510F0121F77F830E539C007C006C0051204BFD005D006D00790F22EE0E8
:200C4900F8A3E0FAA3E0FB88828A838BF07480121D9D740228F8E43AFA88828A838BF07492
:200C690003121D9D8062C005C006C00790F22EE0F8A3E0FAA3E0FB740828F9E43AFE8B079A
:200C890090F27F7468F074F1A3F0E4A3F090F282744EF0E4A3F089828E838FF0C007C006BA
:200CA900C005C003C002C000121CDDD000D002D003D005D006D00788828A838BF074021205
:200CC9001D9DD007D006D005900000C007C006C005120819D005D006D0078D828E838FF099
:200CE9007401121D9D850E82850F838510F0E4021D9D7F00C004C0077428C0E07420C0E0DF
:0E0D09007480C0E0121BA6E58124FBF5812258
:11202800556E6B6E6F776E20737461746520256400CD
:200D1700AFF0AE83E58290F23AF0EEA3F0EFA3F090F231E0FDA3E0FEA3E0FF8D828E838F94
:200D3700F0121F77FC600FBC0303020E5FBC0403020E2C020E95C005C006C00790F23AE0D6
:200D5700F9A3E0FAA3E0FB740829F8E43AFE8B0790F27FE8F0EEA3F0EFA3F090F282744E9B
:200D7700F0E4A3F090F1B775F000C007C006C005C003C002C001121CDDD001D002D003D06F
:200D970005D006D007740529F9E43AFA89828A838BF0121F77F511A3121F77F512D007D09D
:200DB70006D005E51145126039851182851283C007C006C0051208191204E7D005D006D02C
:200DD700078D828E838FF07404121D9D90F234E0F9A3E0FAA3E0FB89828A838BF07420025F
:200DF7001D9D758200C007C006C0051204F6D005D006D0078D828E838FF07403121D9D90D9
:200E1700F234E0F9A3E0FAA3E0FB89828A838BF07408021D9D758201C007C006C005120496
:200E3700F6D005D006D0078D828E838FF07403121D9D90F234E0F9A3E0FAA3E0FB89828A22
:200E5700838BF07408021D9D90F23AE0F9A3E0FAA3E0FB89828A838BF07404121D9D8D82CF
:200E77008E838FF07401121D9D90F234E0FDA3E0FEA3E0FF8D828E838FF0E4021D9D7F0036
:1A0E9700C004C0077439C0E07420C0E07480C0E0121BA6E58124FBF58122B1
:11203900556E6B6E6F776E20737461746520256400BC
:200EB100AFF0AE83E58290F246F0EEA3F0EFA3F090F23DE0FDA3E0FEA3E0FF8D828E838FE1
:200ED100F0121F77FC600FBC030302103FBC0403020FA702112FC005C006C00790F246E034
:200EF100F9A3E0FAA3E0FB740829F8E43AFE8B0790F27FE8F0EEA3F0EFA3F090F282744E00
:200F1100F0E4A3F090F1B775F000C007C006C005C003C002C001121CDDD001D002D003D0D3
:200F310005D006D007740529F9E43AFA89828A838BF0121F77F513A3121F77F514D007D0FD
:200F510006D005E51345146039851382851483C007C006C0051208191204E7D005D006D088
:200F7100078D828E838FF07404121D9D90F240E0F9A3E0FAA3E0FB89828A838BF0742002B7
:200F91001D9D758202C007C006C0051204F6D005D006D0078012758203C007C006C00512BD
:200FB10004F6D005D006D0078D828E838FF07403121D9D90F240E0F515A3E0F516A3E0F510
:200FD100178515828516838517F07404121D9D90F243E0F8A3E0FAA3E0FB88828A838BF0B5
:200FF1007408121D9D90F246E0F9A3E0FAA3E0FB740329F9E43AFA89828A838BF0121F7710
:20101100FAA3121F77FB4A7001228A828B831208198515828516838517F0121F77FB4303A6
:20103100208515828516838517F0EB021D9DC007C006C0051204BFD005D006D00790F240A7
:20105100E0F9A3E0FAA3E0FB89828A838BF0121F77F830E536C001C002C00390F246E0F847
:20107100A3E0FAA3E0FB88828A838BF07480121D9D740228F8E43AFA88828A838BF074035B
:20109100121D9DD003D002D0018060C001C002C00390F246E0F8A3E0FAA3E0FB88828A8325
:2010B1008BF07406121D9D740828F8E43AFA90F27F7468F074F1A3F0E4A3F090F282744EA8
:2010D100F0E4A3F088828A838BF0C007C006C005C003C002C001121CDDD001D002D003D01D
:2010F10005D006D007D003D002D001900000C007C006C005C003C002C001120819D001D0BB
:2011110002D003D005D006D0078D828E838FF07401121D9D89828A838BF0E4021D9D7F00D5
:1A113100C004C007744AC0E07420C0E07480C0E0121BA6E58124FBF5812203
:11204A00556E6B6E6F776E20737461746520256400AB
:20114B00AFF0AE83E58290F252F0EEA3F0EFA3F090F252E0FDA3E0FEA3E0FF8D828E838F23
:1C116B00F07408121D9D90F249E0FDA3E0FEA3E0FF8D828E838FF07401021D9DB5
:20118700AFF0AE83E58290F256F0EEA3F0EFA3F090F255E0FF90F25904F090F25AE4F0A36E
:2011A700F0A3F090F256E0FCA3E0FDA3E0FEEF2CF539E43DF53A8E3B8C368D378E388C3C7A
:2011C7008D3D8E3EA83CA93DAF3EC039C03AC03B888289838FF0120089158115811581508B
:2011E70072853C82853D83853EF0121F77704B90F25AE0FAA3E0FBA3E0FFEA4B701B7401ED
:20120700253CF8E4353DF9AE3EE8C39536F8E99537F990F259E8F08013E53CC39AFDE53D34
:201227009BFE8A828B838FF0ED121D9D90F25AE53CF0E53DA3F0E53EA3F0053CE4B53C024C
:20124700053D90F256E53CF0E53DA3F0E53EA3F00211CB90F256E53CF0E53DA3F0E53EA3AF
:20126700F090F25AE0FDA3E0FEA3E0FFED4E6013E53CC39DFBE53D9EFC8D828E838FF0EB4B
:20128700121D9D90F259E0F58222E58290F261F090F25DE0FDA3E0FEA3E0FF90F260E090DC
:2012A700F2622DF0E43EA3F0EFA3F090F261E0FC1490F25D2DF0E43EA3F0EFA3F090F26295
:2012C700E0FDA3E0FEA3E0FF90F25DE0FAA3E0FBA3E0FCC005C006C0078A828B838CF01277
:2012E700008915811581158150238A828B838CF0121F77F98A828B838CF0E4121D9D90F22A
:0E1307005DE92AF0E43BA3F0ECA3F080BB22EA
:0A13150090F000E0FF74404FF0225A
:20131F00AFF0AE83E58290F269F0EEA3F0EFA3F090F265E0FF70049000002290F269E0FCE6
:20133F00A3E0FDA3E0FE8C828D838EF0121F77FB90F26CF090F26974012CF0E43DA3F0EE52
:20135F00A3F090F26CE0FEC3EF9E500490000022C00690F266E0FCA3E0FDA3E0FF90F26942
:20137F00E0F9A3E0FAA3E0FB89828A838BF0121F77F88C828D838FF0121D9D90F26974017E
:20139F0029F0E43AA3F0EBA3F074012CF521E43DF5228F2390F269E0FAA3E0FBA3E0FE8AF7
:2013BF00828B838EF0121F77F98521828522838523F0121D9D90F26974012AF0E43BA3F07D
:2013DF00EEA3F08C828D838FF0121F77F521B80104D0068046D0067402B521030216077401
:2013FF0003B521030215957404B521030216947405B521030214E97406B521030216077412
:20141F0007B521030216947408B521030216947480B5210302166190000022C00674032CBF
:20143F00F521E43DF5228F2390F269E0F526A3E0F527A3E0F5288526828527838528F0125D
:20145F001F77F97A0089258A2474012526F9E43527FAAE2889828A838EF0121F77F97E008A
:20147F00E5244201E52542068521828522838523F0E9121D9DA3EE121D9D90F2697402252D
:20149F0026F0E43527A3F0E528A3F074072CF526E43DF5278F2890F269E0F8A3E0F9A3E02C
:2014BF00FE888289838EF0121F77FB8526828527838528F0121D9D90F269740128F0E4397E
:2014DF00A3F0EEA3F0D006021694C00674032CF526E43DF5278F2890F269E0F521A3E0F586
:2014FF0022A3E0F5238521828522838523F0121F77F97A0089258A2474012521F9E43522C0
:20151F00FAAE2389828A838EF0121F77F97E00E5244201E52542068526828527838528F095
:20153F00E9121D9DA3EE121D9D90F26974022521F0E43522A3F0E523A3F074072CF526E4D4
:20155F003DF5278F2890F269E0F8A3E0F9A3E0FE888289838EF0121F77FB85268285278309
:20157F008528F0121D9D90F269740128F0E439A3F0EEA3F0D006C00674052CF526E43DF5C8
:20159F00278F2890F269E0F521A3E0F522A3E0F5238521828522838523F0121F77F97E002F
:2015BF0089258E2474012521F9E43522FBAE2389828B838EF0121F77F97E00E5244201E50A
:2015DF002542068526828527838528F0E9121D9DA3EE121D9D90F26974022521F0E43522A2
:2015FF00A3F0E523A3F0D006C00674082CF9E43DFA8F0389268A278B2890F269E0F8A3E05B
:20161F00FBA3E0FE90F27FE8F0EBA3F0EEA3F090F282744EF0E4A3F0852682852783852821
:20163F00F0C006C003C000121CDDD000D003D00690F269744E28F0E43BA3F0EEA3F0D00600
:20165F00803374022CFCE43DFD90F269E0F9A3E0FAA3E0FB89828A838BF0121F77F88C82FC
:20167F008D838FF0121D9D90F269740129F0E43AA3F0EBA3F07F008E828F8322AFF0AE83B5
:20169F00E58290F271F0EEA3F0EFA3F090F26DE0FDA3E0FEA3E0FF90F2777403F090F271BC
:2016BF00E0F529A3E0F52AA3E0F52B852982852A83852BF0121F77F9B90102802CB9020200
:2016DF00803DB903028030B904028043B905028020B906028029B907028034B90802802F8C
:2016FF00B9800280249000002290F2777406F0801E90F2777406F090F277E0F92402F0905E
:20171F00F277E0F9244EF0800690F2777404F090F270E0F990F277E0F8C3E998500490005B
:20173F0000228D828E838FF0E8121D9DC00074012DF8E43EF98F04852982852A83852BF00B
:20175F00121F77FB888289838CF0121D9D74022DF52CE43EF52D8F2E74012529F8E4352AA6
:20177F00F9AC2B888289838CF0121F77F8852C82852D83852EF0121D9D74032DF52CE43E8A
:20179F00F52D8F2E90F274E52CF0E52DA3F0E52EA3F0852982852A83852BF0121F77F52F3B
:2017BF007401B52F04D0008046D0007402B52F0302199D7403B52F030219297404B52F0331
:2017DF00021A357405B52F0302189D7406B52F0302199D7407B52F03021A357408B52F0353
:2017FF00021A357480B52F03021A0690000022C00074032529F530E4352AF531852B328550
:20181F0030828531838532F0121F77A3121F77852C82852D83852EF0121D9D74042DF8E4CC
:20183F003EF98F048530828531838532F0121F77FAA3121F77FB888289838CF0EA121D9D78
:20185F0074052DF530E43EF5318F3274072529F8E4352AF9AC2B888289838CF0121F778502
:20187F0030828531838532F0121D9D90F27474062DF0E43EA3F0EFA3F0D000021A35C00046
:20189F0074032529F530E4352AF531852B328530828531838532F0121F77A3121F77852C39
:2018BF0082852D83852EF0121D9D74042DF8E43EF98F048530828531838532F0121F77FADF
:2018DF00A3121F77FB888289838CF0EA121D9D74052DF530E43EF5318F3274072529F8E4E2
:2018FF00352AF9AC2B888289838CF0121F778530828531838532F0121D9D90F27474062DE0
:20191F00F0E43EA3F0EFA3F0D000C00090F274E0F530A3E0F531A3E0F53274052529F533B4
:20193F00E4352AF534852B358533828534838535F0121F77A3121F778530828531838532FD
:20195F00F0121D9D74012530FAE43531FBAC328533828534838535F0121F77F8A3121F77BA
:20197F00F98A828B838CF0E8121D9D90F27474022530F0E43531A3F0E532A3F0D000C0003D
:20199F0090F274E0F533A3E0F534A3E0F53585333085343185353274082529FAE4352AFB11
:2019BF00AC2B90F27FEAF0EBA3F0ECA3F090F282744EF0E4A3F08530828531838532F0C055
:2019DF0007C006C005C000121CDDD000D005D006D00790F274744E2533F0E43534A3F0E574
:2019FF0035A3F0D000802F74022529FAE4352AFBAC2B8A828B838CF0121F77FA852C8285BE
:201A1F002D83852EF0121D9D90F27474042DF0E43EA3F0EFA3F090F274E0FAA3E0FBA3E0F5
:201A3F00EAC39DFDEB9EFE88047F00ECB50506EFB506028004900000227F0088828F832263
:201A5F00758680AFF174FE5F4402F5F143F33C75C283AFC574E05F4409F5C543C44043C4A7
:201A7F008043C40290F27AE4F0C28BAF8674FB5FF586438640D2AA2290F000E0FF74FE5F4C
:201A9F00F090F27A7401F090F278E4F02222C0E0C082C083C007C006C0D075D000C28BAF41
:201ABF00C190F27BEFF090F27AE0FE600890F27AE0FEBE010CBFFF09D291C2AF75C9098021
:201ADF004D90F27AE0FF7002804490F27AE0FFBF010B90F278E4F090F27A7402F090F278B9
:201AFF00E0FFE02401F0EF2401F582E434F0F583E5C1F090F001E0FF90F278E0FEB5070E50
:201B1F0090F27AE4F090F000E0FF74014FF0D0D0D006D007D083D082D0E03290F000E0FF90
:201B3F0074FD5FF090F2797401F090F059E0F5C1439A0422C0E0C082C083C007C006C0D0B2
:201B5F0075D000C2E990F279E0FFE02401F0EF2459F582E434F0F583E0F5C190F059E0FFF6
:201B7F0090F279E0FEB50710AF9A74FB5FF59A90F000E0FF74024FF0D0D0D006D007D08347
:051B9F00D082D0E0320D
:0D1BA4002222C018858118121315D01822B6
:201BB100121C54BC0003021E86EF60FA30D502B2D1E583B4FF03021E9CE582B4FF03021E43
:201BD1009C258340072482400B021E862483145003021E9CF582EA8DF0A4A8F0EA8EF0A4E2
:201BF10028F8E435F0F9EB8DF0A428E935F0F9E433CA8FF0A429F9EA35F0FAEBF88EF0A443
:201C110029F9EA35F0FAE433FBEC8DF0A429F9EA35F0FAE43BFBE88FF0A42AFAEB35F0FBEA
:201C3100E433CCFD8EF0A42AFAEB35F0FBE43CFCED8FF0A42BFBEC35F0FC20E703121C8249
:031C5100021E650B
:201C5400AA82AB83A2F73392D1F5826002D2F7ACF0E58124F9F8E6FD08E6FE0886F008E6F3
:0E1C7400A2F73392D5F5836002D2F7AFF022CB
:0600E600E478FFF6D8FDEE
:201C82007804EC7011E58224F8500AF582E4C9CACBFCD8EF22EC7820058220E713D5820161
:131CA20022C3E933F9EA33FAEB33FBEC33FCD8EA1582226F
:201CB500AC82AD8390F27DE0FEA3E0FFBE000360121F0F90F27CE08C828D83121D9DA3DEA8
:081CD500FADFF88C828D8322F6
:201CDD00AFF0AE83E58290F284F0EEA3F0EFA3F090F284E0F536A3E0F537A3E0F538AA3667
:201CFD00AB37AC3890F27FE0F8A3E0F9A3E0FF90F282E0F539A3E0F53AAD39AE3A153974D6
:201D1D00FFB53902153AED4E6020888289838FF0121F77FEA3A882A9838A828B838CF0EEF5
:141D3D00121D9DA3AA82AB8380CF8536828537838538F0222F
:2000C4007901E94400601B7A0190205B788D7593F2E493F2A308B800020593D9F4DAF27501
:0200E40093FF88
:131D5100FCABF0AA83A982749EC2D1F582121C82021E653F
:201D64007F9E121D8B30D103021E86C3EF9582500974FFF5F0F583F582227900121F93898D
:071D8400828A838BF0EC2240
:121D8B00AA82AB83A2F73392D1F5826002D2F7ACF0225D
:1B1D9D0020F71130F6138883A88220F509F6A8837583002280FEF280F5F02245
:201DB800AF83E58290F28AF0EFA3F090F28CE4F090F28AE0FEA3E0FF7D0090F288E0FBA3A1
:201DD800E0FC235401FA7037ECCB25E0CB33FC90F288EBF0ECA3F090F288E0FBA3E0FCC3B5
:201DF800EE9BEF9C5011ECC313CB13CBFC90F288EBF0ECA3F080080D90F28CEDF080BB9040
:201E1800F28CE0FF90F28AE0FDA3E0FE90F288E0FBA3E0FCC3ED9BEE9C400B90F28AEDC3A3
:201E38009BF0EE9CA3F090F288E0FDA3E0C313CD13CDFE90F288EDF0EEA3F08F061FEE707D
:0D1E5800C390F28AE0FEA3E08E82F58322A3
:2000EC007800E84400600A79007593F0E4F309D8FC788DE84402600C790390F000E4F0A3AF
:04010C00D8FCD9FA48
:201E6500B98003EA13B34010EA2401FAE43BFBE43CFC50047C800582BC000EBB000BBA00C1
:201E850008E4F5F0F583F58222A2D1E582138CF092F78B838A8222E4F583F58275F080F481
:0F1EA500A2D11322E4F583F58275F0C0747F2279
:20008900E58124FCC3C8C0E0C082E608467006E5824583601218E58296F58208E583964245
:0E00A9008208E5F0964582D082C8D0E0C822D9
:201EB400121C5430D502B2D1BF0009BC0003021EA9021E9CBC0003021E86E583B4FF0BE586
:201ED40082B4FF03021EA9021E86E582B4FF03021E9CC395835007247F400B021E86248004
:201EF400145003021E9CF582C3ED9AEE9BEF9C40111582C3EA33F9EB33FAEC33FBE433FCD0
:201F14008005E4CCCBCAF9C08275F019C3E99DEA9EEB9FEC9400D5F002802D400EE99DF90E
:201F3400EA9EFAEB9FFBEC9400FCC3B3E833F8E58233F582E58333F583C3E933F9EA33FA6E
:201F5400EB33FBEC33FC80C4B3E4F938FAE43582FBE43583FCD082500405827C80121C822C
:031F7400021E7DCD
:0D00B70075813E121FD6E5826003020086AF
:1C1F770020F71430F6148883A88220F507E6A88375830022E280F7E49322E02279
:201F93006040F82582500274FFF582E824F8501ECCCBCAF9E4CC24F85014CBCAF9E4CB2456
:201FB300F8500BCAF9E4CA24F8500379002224086010F8C3EC13FCEB13FBEA13FAE913F909
:031FD300D8F12220
:041FD60075820022EE
:00000001FF
